{
  "contractName": "DigitalArt",
  "abi": [
    {
      "inputs": [],
      "stateMutability": "nonpayable",
      "type": "constructor"
    },
    {
      "anonymous": false,
      "inputs": [
        {
          "indexed": true,
          "internalType": "address",
          "name": "owner",
          "type": "address"
        },
        {
          "indexed": true,
          "internalType": "address",
          "name": "approved",
          "type": "address"
        },
        {
          "indexed": true,
          "internalType": "uint256",
          "name": "tokenId",
          "type": "uint256"
        }
      ],
      "name": "Approval",
      "type": "event"
    },
    {
      "anonymous": false,
      "inputs": [
        {
          "indexed": true,
          "internalType": "address",
          "name": "owner",
          "type": "address"
        },
        {
          "indexed": true,
          "internalType": "address",
          "name": "operator",
          "type": "address"
        },
        {
          "indexed": false,
          "internalType": "bool",
          "name": "approved",
          "type": "bool"
        }
      ],
      "name": "ApprovalForAll",
      "type": "event"
    },
    {
      "anonymous": false,
      "inputs": [
        {
          "indexed": true,
          "internalType": "address",
          "name": "previousOwner",
          "type": "address"
        },
        {
          "indexed": true,
          "internalType": "address",
          "name": "newOwner",
          "type": "address"
        }
      ],
      "name": "OwnershipTransferred",
      "type": "event"
    },
    {
      "anonymous": false,
      "inputs": [
        {
          "indexed": true,
          "internalType": "address",
          "name": "from",
          "type": "address"
        },
        {
          "indexed": true,
          "internalType": "address",
          "name": "to",
          "type": "address"
        },
        {
          "indexed": true,
          "internalType": "uint256",
          "name": "tokenId",
          "type": "uint256"
        }
      ],
      "name": "Transfer",
      "type": "event"
    },
    {
      "inputs": [
        {
          "internalType": "address",
          "name": "to",
          "type": "address"
        },
        {
          "internalType": "uint256",
          "name": "tokenId",
          "type": "uint256"
        }
      ],
      "name": "approve",
      "outputs": [],
      "stateMutability": "nonpayable",
      "type": "function"
    },
    {
      "inputs": [
        {
          "internalType": "address",
          "name": "owner",
          "type": "address"
        }
      ],
      "name": "balanceOf",
      "outputs": [
        {
          "internalType": "uint256",
          "name": "",
          "type": "uint256"
        }
      ],
      "stateMutability": "view",
      "type": "function"
    },
    {
      "inputs": [
        {
          "internalType": "uint256",
          "name": "tokenId",
          "type": "uint256"
        }
      ],
      "name": "getApproved",
      "outputs": [
        {
          "internalType": "address",
          "name": "",
          "type": "address"
        }
      ],
      "stateMutability": "view",
      "type": "function"
    },
    {
      "inputs": [
        {
          "internalType": "address",
          "name": "owner",
          "type": "address"
        },
        {
          "internalType": "address",
          "name": "operator",
          "type": "address"
        }
      ],
      "name": "isApprovedForAll",
      "outputs": [
        {
          "internalType": "bool",
          "name": "",
          "type": "bool"
        }
      ],
      "stateMutability": "view",
      "type": "function"
    },
    {
      "inputs": [],
      "name": "name",
      "outputs": [
        {
          "internalType": "string",
          "name": "",
          "type": "string"
        }
      ],
      "stateMutability": "view",
      "type": "function"
    },
    {
      "inputs": [],
      "name": "owner",
      "outputs": [
        {
          "internalType": "address",
          "name": "",
          "type": "address"
        }
      ],
      "stateMutability": "view",
      "type": "function"
    },
    {
      "inputs": [
        {
          "internalType": "uint256",
          "name": "tokenId",
          "type": "uint256"
        }
      ],
      "name": "ownerOf",
      "outputs": [
        {
          "internalType": "address",
          "name": "",
          "type": "address"
        }
      ],
      "stateMutability": "view",
      "type": "function"
    },
    {
      "inputs": [],
      "name": "renounceOwnership",
      "outputs": [],
      "stateMutability": "nonpayable",
      "type": "function"
    },
    {
      "inputs": [
        {
          "internalType": "address",
          "name": "from",
          "type": "address"
        },
        {
          "internalType": "address",
          "name": "to",
          "type": "address"
        },
        {
          "internalType": "uint256",
          "name": "tokenId",
          "type": "uint256"
        }
      ],
      "name": "safeTransferFrom",
      "outputs": [],
      "stateMutability": "nonpayable",
      "type": "function"
    },
    {
      "inputs": [
        {
          "internalType": "address",
          "name": "from",
          "type": "address"
        },
        {
          "internalType": "address",
          "name": "to",
          "type": "address"
        },
        {
          "internalType": "uint256",
          "name": "tokenId",
          "type": "uint256"
        },
        {
          "internalType": "bytes",
          "name": "_data",
          "type": "bytes"
        }
      ],
      "name": "safeTransferFrom",
      "outputs": [],
      "stateMutability": "nonpayable",
      "type": "function"
    },
    {
      "inputs": [
        {
          "internalType": "address",
          "name": "operator",
          "type": "address"
        },
        {
          "internalType": "bool",
          "name": "approved",
          "type": "bool"
        }
      ],
      "name": "setApprovalForAll",
      "outputs": [],
      "stateMutability": "nonpayable",
      "type": "function"
    },
    {
      "inputs": [
        {
          "internalType": "bytes4",
          "name": "interfaceId",
          "type": "bytes4"
        }
      ],
      "name": "supportsInterface",
      "outputs": [
        {
          "internalType": "bool",
          "name": "",
          "type": "bool"
        }
      ],
      "stateMutability": "view",
      "type": "function"
    },
    {
      "inputs": [],
      "name": "symbol",
      "outputs": [
        {
          "internalType": "string",
          "name": "",
          "type": "string"
        }
      ],
      "stateMutability": "view",
      "type": "function"
    },
    {
      "inputs": [
        {
          "internalType": "uint256",
          "name": "tokenId",
          "type": "uint256"
        }
      ],
      "name": "tokenURI",
      "outputs": [
        {
          "internalType": "string",
          "name": "",
          "type": "string"
        }
      ],
      "stateMutability": "view",
      "type": "function"
    },
    {
      "inputs": [
        {
          "internalType": "address",
          "name": "from",
          "type": "address"
        },
        {
          "internalType": "address",
          "name": "to",
          "type": "address"
        },
        {
          "internalType": "uint256",
          "name": "tokenId",
          "type": "uint256"
        }
      ],
      "name": "transferFrom",
      "outputs": [],
      "stateMutability": "nonpayable",
      "type": "function"
    },
    {
      "inputs": [
        {
          "internalType": "address",
          "name": "newOwner",
          "type": "address"
        }
      ],
      "name": "transferOwnership",
      "outputs": [],
      "stateMutability": "nonpayable",
      "type": "function"
    },
    {
      "inputs": [
        {
          "internalType": "uint256",
          "name": "tokenId",
          "type": "uint256"
        }
      ],
      "name": "getTokenURI",
      "outputs": [
        {
          "internalType": "string",
          "name": "",
          "type": "string"
        }
      ],
      "stateMutability": "view",
      "type": "function"
    },
    {
      "inputs": [],
      "name": "getAllTokens",
      "outputs": [
        {
          "components": [
            {
              "internalType": "uint256",
              "name": "id",
              "type": "uint256"
            },
            {
              "internalType": "string",
              "name": "uri",
              "type": "string"
            }
          ],
          "internalType": "struct DigitalArt.Tokens[]",
          "name": "",
          "type": "tuple[]"
        }
      ],
      "stateMutability": "view",
      "type": "function"
    },
    {
      "inputs": [
        {
          "internalType": "address",
          "name": "recipient",
          "type": "address"
        },
        {
          "internalType": "string",
          "name": "uri",
          "type": "string"
        }
      ],
      "name": "mint",
      "outputs": [],
      "stateMutability": "nonpayable",
      "type": "function"
    }
  ],
  "bytecode": "0x60806040523480156200001157600080fd5b506040518060400160405280601181526020017f4469676974616c2041727420546f6b656e0000000000000000000000000000008152506040518060400160405280600581526020017f442d415254000000000000000000000000000000000000000000000000000000815250816000908051906020019062000096929190620001a6565b508060019080519060200190620000af929190620001a6565b505050620000d2620000c6620000d860201b60201c565b620000e060201b60201c565b620002bb565b600033905090565b6000600660009054906101000a900473ffffffffffffffffffffffffffffffffffffffff16905081600660006101000a81548173ffffffffffffffffffffffffffffffffffffffff021916908373ffffffffffffffffffffffffffffffffffffffff1602179055508173ffffffffffffffffffffffffffffffffffffffff168173ffffffffffffffffffffffffffffffffffffffff167f8be0079c531659141344cd1fd0a4f28419497f9722a3daafe3b4186f6b6457e060405160405180910390a35050565b828054620001b49062000256565b90600052602060002090601f016020900481019282620001d8576000855562000224565b82601f10620001f357805160ff191683800117855562000224565b8280016001018555821562000224579182015b828111156200022357825182559160200191906001019062000206565b5b50905062000233919062000237565b5090565b5b808211156200025257600081600090555060010162000238565b5090565b600060028204905060018216806200026f57607f821691505b602082108114156200028657620002856200028c565b5b50919050565b7f4e487b7100000000000000000000000000000000000000000000000000000000600052602260045260246000fd5b612fc580620002cb6000396000f3fe608060405234801561001057600080fd5b50600436106101215760003560e01c806370a08231116100ad578063b88d4fde11610071578063b88d4fde14610308578063c87b56dd14610324578063d0def52114610354578063e985e9c514610370578063f2fde38b146103a057610121565b806370a0823114610276578063715018a6146102a65780638da5cb5b146102b057806395d89b41146102ce578063a22cb465146102ec57610121565b806323b872dd116100f457806323b872dd146101c05780632a5c792a146101dc5780633bb3a24d146101fa57806342842e0e1461022a5780636352211e1461024657610121565b806301ffc9a71461012657806306fdde0314610156578063081812fc14610174578063095ea7b3146101a4575b600080fd5b610140600480360381019061013b9190612005565b6103bc565b60405161014d91906128d3565b60405180910390f35b61015e61049e565b60405161016b91906128ee565b60405180910390f35b61018e60048036038101906101899190612057565b610530565b60405161019b919061284a565b60405180910390f35b6101be60048036038101906101b99190611fc9565b6105b5565b005b6101da60048036038101906101d59190611e6f565b6106cd565b005b6101e461072d565b6040516101f191906128b1565b60405180910390f35b610214600480360381019061020f9190612057565b610868565b60405161022191906128ee565b60405180910390f35b610244600480360381019061023f9190611e6f565b61091f565b005b610260600480360381019061025b9190612057565b61093f565b60405161026d919061284a565b60405180910390f35b610290600480360381019061028b9190611e0a565b6109f1565b60405161029d9190612b10565b60405180910390f35b6102ae610aa9565b005b6102b8610b31565b6040516102c5919061284a565b60405180910390f35b6102d6610b5b565b6040516102e391906128ee565b60405180910390f35b61030660048036038101906103019190611f39565b610bed565b005b610322600480360381019061031d9190611ebe565b610d6e565b005b61033e60048036038101906103399190612057565b610dd0565b60405161034b91906128ee565b60405180910390f35b61036e60048036038101906103699190611f75565b610e77565b005b61038a60048036038101906103859190611e33565b610f1a565b60405161039791906128d3565b60405180910390f35b6103ba60048036038101906103b59190611e0a565b610fae565b005b60007f80ac58cd000000000000000000000000000000000000000000000000000000007bffffffffffffffffffffffffffffffffffffffffffffffffffffffff1916827bffffffffffffffffffffffffffffffffffffffffffffffffffffffff1916148061048757507f5b5e139f000000000000000000000000000000000000000000000000000000007bffffffffffffffffffffffffffffffffffffffffffffffffffffffff1916827bffffffffffffffffffffffffffffffffffffffffffffffffffffffff1916145b806104975750610496826110a6565b5b9050919050565b6060600080546104ad90612dba565b80601f01602080910402602001604051908101604052809291908181526020018280546104d990612dba565b80156105265780601f106104fb57610100808354040283529160200191610526565b820191906000526020600020905b81548152906001019060200180831161050957829003601f168201915b5050505050905090565b600061053b82611110565b61057a576040517f08c379a000000000000000000000000000000000000000000000000000000000815260040161057190612a50565b60405180910390fd5b6004600083815260200190815260200160002060009054906101000a900473ffffffffffffffffffffffffffffffffffffffff169050919050565b60006105c08261093f565b90508073ffffffffffffffffffffffffffffffffffffffff168373ffffffffffffffffffffffffffffffffffffffff161415610631576040517f08c379a000000000000000000000000000000000000000000000000000000000815260040161062890612ad0565b60405180910390fd5b8073ffffffffffffffffffffffffffffffffffffffff1661065061117c565b73ffffffffffffffffffffffffffffffffffffffff16148061067f575061067e8161067961117c565b610f1a565b5b6106be576040517f08c379a00000000000000000000000000000000000000000000000000000000081526004016106b5906129d0565b60405180910390fd5b6106c88383611184565b505050565b6106de6106d861117c565b8261123d565b61071d576040517f08c379a000000000000000000000000000000000000000000000000000000000815260040161071490612af0565b60405180910390fd5b61072883838361131b565b505050565b6060600061073b6007611577565b90506000808267ffffffffffffffff811115610780577f4e487b7100000000000000000000000000000000000000000000000000000000600052604160045260246000fd5b6040519080825280602002602001820160405280156107b957816020015b6107a6611c14565b81526020019060019003908161079e5790505b50905060005b8381101561085e576107d083611110565b1561083d5760006107e084610868565b9050604051806040016040528085815260200182815250838581518110610830577f4e487b7100000000000000000000000000000000000000000000000000000000600052603260045260246000fd5b6020026020010181905250505b828061084890612dec565b935050808061085690612dec565b9150506107bf565b5080935050505090565b606061087382611110565b61087c57600080fd5b60086000838152602001908152602001600020805461089a90612dba565b80601f01602080910402602001604051908101604052809291908181526020018280546108c690612dba565b80156109135780601f106108e857610100808354040283529160200191610913565b820191906000526020600020905b8154815290600101906020018083116108f657829003601f168201915b50505050509050919050565b61093a83838360405180602001604052806000815250610d6e565b505050565b6000806002600084815260200190815260200160002060009054906101000a900473ffffffffffffffffffffffffffffffffffffffff169050600073ffffffffffffffffffffffffffffffffffffffff168173ffffffffffffffffffffffffffffffffffffffff1614156109e8576040517f08c379a00000000000000000000000000000000000000000000000000000000081526004016109df90612a10565b60405180910390fd5b80915050919050565b60008073ffffffffffffffffffffffffffffffffffffffff168273ffffffffffffffffffffffffffffffffffffffff161415610a62576040517f08c379a0000000000000000000000000000000000000000000000000000000008152600401610a59906129f0565b60405180910390fd5b600360008373ffffffffffffffffffffffffffffffffffffffff1673ffffffffffffffffffffffffffffffffffffffff168152602001908152602001600020549050919050565b610ab161117c565b73ffffffffffffffffffffffffffffffffffffffff16610acf610b31565b73ffffffffffffffffffffffffffffffffffffffff1614610b25576040517f08c379a0000000000000000000000000000000000000000000000000000000008152600401610b1c90612a70565b60405180910390fd5b610b2f6000611585565b565b6000600660009054906101000a900473ffffffffffffffffffffffffffffffffffffffff16905090565b606060018054610b6a90612dba565b80601f0160208091040260200160405190810160405280929190818152602001828054610b9690612dba565b8015610be35780601f10610bb857610100808354040283529160200191610be3565b820191906000526020600020905b815481529060010190602001808311610bc657829003601f168201915b5050505050905090565b610bf561117c565b73ffffffffffffffffffffffffffffffffffffffff168273ffffffffffffffffffffffffffffffffffffffff161415610c63576040517f08c379a0000000000000000000000000000000000000000000000000000000008152600401610c5a90612990565b60405180910390fd5b8060056000610c7061117c565b73ffffffffffffffffffffffffffffffffffffffff1673ffffffffffffffffffffffffffffffffffffffff16815260200190815260200160002060008473ffffffffffffffffffffffffffffffffffffffff1673ffffffffffffffffffffffffffffffffffffffff16815260200190815260200160002060006101000a81548160ff0219169083151502179055508173ffffffffffffffffffffffffffffffffffffffff16610d1d61117c565b73ffffffffffffffffffffffffffffffffffffffff167f17307eab39ab6107e8899845ad3d59bd9653f200f220920489ca2b5937696c3183604051610d6291906128d3565b60405180910390a35050565b610d7f610d7961117c565b8361123d565b610dbe576040517f08c379a0000000000000000000000000000000000000000000000000000000008152600401610db590612af0565b60405180910390fd5b610dca8484848461164b565b50505050565b6060610ddb82611110565b610e1a576040517f08c379a0000000000000000000000000000000000000000000000000000000008152600401610e1190612ab0565b60405180910390fd5b6000610e246116a7565b90506000815111610e445760405180602001604052806000815250610e6f565b80610e4e846116be565b604051602001610e5f929190612826565b6040516020818303038152906040525b915050919050565b610e7f61117c565b73ffffffffffffffffffffffffffffffffffffffff16610e9d610b31565b73ffffffffffffffffffffffffffffffffffffffff1614610ef3576040517f08c379a0000000000000000000000000000000000000000000000000000000008152600401610eea90612a70565b60405180910390fd5b6000610eff6007611577565b9050610f0b838261186b565b610f158183611a39565b505050565b6000600560008473ffffffffffffffffffffffffffffffffffffffff1673ffffffffffffffffffffffffffffffffffffffff16815260200190815260200160002060008373ffffffffffffffffffffffffffffffffffffffff1673ffffffffffffffffffffffffffffffffffffffff16815260200190815260200160002060009054906101000a900460ff16905092915050565b610fb661117c565b73ffffffffffffffffffffffffffffffffffffffff16610fd4610b31565b73ffffffffffffffffffffffffffffffffffffffff161461102a576040517f08c379a000000000000000000000000000000000000000000000000000000000815260040161102190612a70565b60405180910390fd5b600073ffffffffffffffffffffffffffffffffffffffff168173ffffffffffffffffffffffffffffffffffffffff16141561109a576040517f08c379a000000000000000000000000000000000000000000000000000000000815260040161109190612930565b60405180910390fd5b6110a381611585565b50565b60007f01ffc9a7000000000000000000000000000000000000000000000000000000007bffffffffffffffffffffffffffffffffffffffffffffffffffffffff1916827bffffffffffffffffffffffffffffffffffffffffffffffffffffffff1916149050919050565b60008073ffffffffffffffffffffffffffffffffffffffff166002600084815260200190815260200160002060009054906101000a900473ffffffffffffffffffffffffffffffffffffffff1673ffffffffffffffffffffffffffffffffffffffff1614159050919050565b600033905090565b816004600083815260200190815260200160002060006101000a81548173ffffffffffffffffffffffffffffffffffffffff021916908373ffffffffffffffffffffffffffffffffffffffff160217905550808273ffffffffffffffffffffffffffffffffffffffff166111f78361093f565b73ffffffffffffffffffffffffffffffffffffffff167f8c5be1e5ebec7d5bd14f71427d1e84f3dd0314c0f7b2291e5b200ac8c7c3b92560405160405180910390a45050565b600061124882611110565b611287576040517f08c379a000000000000000000000000000000000000000000000000000000000815260040161127e906129b0565b60405180910390fd5b60006112928361093f565b90508073ffffffffffffffffffffffffffffffffffffffff168473ffffffffffffffffffffffffffffffffffffffff16148061130157508373ffffffffffffffffffffffffffffffffffffffff166112e984610530565b73ffffffffffffffffffffffffffffffffffffffff16145b8061131257506113118185610f1a565b5b91505092915050565b8273ffffffffffffffffffffffffffffffffffffffff1661133b8261093f565b73ffffffffffffffffffffffffffffffffffffffff1614611391576040517f08c379a000000000000000000000000000000000000000000000000000000000815260040161138890612a90565b60405180910390fd5b600073ffffffffffffffffffffffffffffffffffffffff168273ffffffffffffffffffffffffffffffffffffffff161415611401576040517f08c379a00000000000000000000000000000000000000000000000000000000081526004016113f890612970565b60405180910390fd5b61140c838383611a65565b611417600082611184565b6001600360008573ffffffffffffffffffffffffffffffffffffffff1673ffffffffffffffffffffffffffffffffffffffff16815260200190815260200160002060008282546114679190612cd0565b925050819055506001600360008473ffffffffffffffffffffffffffffffffffffffff1673ffffffffffffffffffffffffffffffffffffffff16815260200190815260200160002060008282546114be9190612c49565b92505081905550816002600083815260200190815260200160002060006101000a81548173ffffffffffffffffffffffffffffffffffffffff021916908373ffffffffffffffffffffffffffffffffffffffff160217905550808273ffffffffffffffffffffffffffffffffffffffff168473ffffffffffffffffffffffffffffffffffffffff167fddf252ad1be2c89b69c2b068fc378daa952ba7f163c4a11628f55a4df523b3ef60405160405180910390a4505050565b600081600001549050919050565b6000600660009054906101000a900473ffffffffffffffffffffffffffffffffffffffff16905081600660006101000a81548173ffffffffffffffffffffffffffffffffffffffff021916908373ffffffffffffffffffffffffffffffffffffffff1602179055508173ffffffffffffffffffffffffffffffffffffffff168173ffffffffffffffffffffffffffffffffffffffff167f8be0079c531659141344cd1fd0a4f28419497f9722a3daafe3b4186f6b6457e060405160405180910390a35050565b61165684848461131b565b61166284848484611a6a565b6116a1576040517f08c379a000000000000000000000000000000000000000000000000000000000815260040161169890612910565b60405180910390fd5b50505050565b606060405180602001604052806000815250905090565b60606000821415611706576040518060400160405280600181526020017f30000000000000000000000000000000000000000000000000000000000000008152509050611866565b600082905060005b6000821461173857808061172190612dec565b915050600a826117319190612c9f565b915061170e565b60008167ffffffffffffffff81111561177a577f4e487b7100000000000000000000000000000000000000000000000000000000600052604160045260246000fd5b6040519080825280601f01601f1916602001820160405280156117ac5781602001600182028036833780820191505090505b5090505b6000851461185f576001826117c59190612cd0565b9150600a856117d49190612e35565b60306117e09190612c49565b60f81b81838151811061181c577f4e487b7100000000000000000000000000000000000000000000000000000000600052603260045260246000fd5b60200101907effffffffffffffffffffffffffffffffffffffffffffffffffffffffffffff1916908160001a905350600a856118589190612c9f565b94506117b0565b8093505050505b919050565b600073ffffffffffffffffffffffffffffffffffffffff168273ffffffffffffffffffffffffffffffffffffffff1614156118db576040517f08c379a00000000000000000000000000000000000000000000000000000000081526004016118d290612a30565b60405180910390fd5b6118e481611110565b15611924576040517f08c379a000000000000000000000000000000000000000000000000000000000815260040161191b90612950565b60405180910390fd5b61193060008383611a65565b6001600360008473ffffffffffffffffffffffffffffffffffffffff1673ffffffffffffffffffffffffffffffffffffffff16815260200190815260200160002060008282546119809190612c49565b92505081905550816002600083815260200190815260200160002060006101000a81548173ffffffffffffffffffffffffffffffffffffffff021916908373ffffffffffffffffffffffffffffffffffffffff160217905550808273ffffffffffffffffffffffffffffffffffffffff16600073ffffffffffffffffffffffffffffffffffffffff167fddf252ad1be2c89b69c2b068fc378daa952ba7f163c4a11628f55a4df523b3ef60405160405180910390a45050565b80600860008481526020019081526020016000209080519060200190611a60929190611c2e565b505050565b505050565b6000611a8b8473ffffffffffffffffffffffffffffffffffffffff16611c01565b15611bf4578373ffffffffffffffffffffffffffffffffffffffff1663150b7a02611ab461117c565b8786866040518563ffffffff1660e01b8152600401611ad69493929190612865565b602060405180830381600087803b158015611af057600080fd5b505af1925050508015611b2157506040513d601f19601f82011682018060405250810190611b1e919061202e565b60015b611ba4573d8060008114611b51576040519150601f19603f3d011682016040523d82523d6000602084013e611b56565b606091505b50600081511415611b9c576040517f08c379a0000000000000000000000000000000000000000000000000000000008152600401611b9390612910565b60405180910390fd5b805181602001fd5b63150b7a0260e01b7bffffffffffffffffffffffffffffffffffffffffffffffffffffffff1916817bffffffffffffffffffffffffffffffffffffffffffffffffffffffff191614915050611bf9565b600190505b949350505050565b600080823b905060008111915050919050565b604051806040016040528060008152602001606081525090565b828054611c3a90612dba565b90600052602060002090601f016020900481019282611c5c5760008555611ca3565b82601f10611c7557805160ff1916838001178555611ca3565b82800160010185558215611ca3579182015b82811115611ca2578251825591602001919060010190611c87565b5b509050611cb09190611cb4565b5090565b5b80821115611ccd576000816000905550600101611cb5565b5090565b6000611ce4611cdf84612b5c565b612b2b565b905082815260208101848484011115611cfc57600080fd5b611d07848285612d78565b509392505050565b6000611d22611d1d84612b8c565b612b2b565b905082815260208101848484011115611d3a57600080fd5b611d45848285612d78565b509392505050565b600081359050611d5c81612f33565b92915050565b600081359050611d7181612f4a565b92915050565b600081359050611d8681612f61565b92915050565b600081519050611d9b81612f61565b92915050565b600082601f830112611db257600080fd5b8135611dc2848260208601611cd1565b91505092915050565b600082601f830112611ddc57600080fd5b8135611dec848260208601611d0f565b91505092915050565b600081359050611e0481612f78565b92915050565b600060208284031215611e1c57600080fd5b6000611e2a84828501611d4d565b91505092915050565b60008060408385031215611e4657600080fd5b6000611e5485828601611d4d565b9250506020611e6585828601611d4d565b9150509250929050565b600080600060608486031215611e8457600080fd5b6000611e9286828701611d4d565b9350506020611ea386828701611d4d565b9250506040611eb486828701611df5565b9150509250925092565b60008060008060808587031215611ed457600080fd5b6000611ee287828801611d4d565b9450506020611ef387828801611d4d565b9350506040611f0487828801611df5565b925050606085013567ffffffffffffffff811115611f2157600080fd5b611f2d87828801611da1565b91505092959194509250565b60008060408385031215611f4c57600080fd5b6000611f5a85828601611d4d565b9250506020611f6b85828601611d62565b9150509250929050565b60008060408385031215611f8857600080fd5b6000611f9685828601611d4d565b925050602083013567ffffffffffffffff811115611fb357600080fd5b611fbf85828601611dcb565b9150509250929050565b60008060408385031215611fdc57600080fd5b6000611fea85828601611d4d565b9250506020611ffb85828601611df5565b9150509250929050565b60006020828403121561201757600080fd5b600061202584828501611d77565b91505092915050565b60006020828403121561204057600080fd5b600061204e84828501611d8c565b91505092915050565b60006020828403121561206957600080fd5b600061207784828501611df5565b91505092915050565b600061208c83836127cb565b905092915050565b61209d81612d04565b82525050565b60006120ae82612bcc565b6120b88185612bfa565b9350836020820285016120ca85612bbc565b8060005b8581101561210657848403895281516120e78582612080565b94506120f283612bed565b925060208a019950506001810190506120ce565b50829750879550505050505092915050565b61212181612d16565b82525050565b600061213282612bd7565b61213c8185612c0b565b935061214c818560208601612d87565b61215581612f22565b840191505092915050565b600061216b82612be2565b6121758185612c1c565b9350612185818560208601612d87565b61218e81612f22565b840191505092915050565b60006121a482612be2565b6121ae8185612c2d565b93506121be818560208601612d87565b6121c781612f22565b840191505092915050565b60006121dd82612be2565b6121e78185612c3e565b93506121f7818560208601612d87565b80840191505092915050565b6000612210603283612c2d565b91507f4552433732313a207472616e7366657220746f206e6f6e20455243373231526560008301527f63656976657220696d706c656d656e74657200000000000000000000000000006020830152604082019050919050565b6000612276602683612c2d565b91507f4f776e61626c653a206e6577206f776e657220697320746865207a65726f206160008301527f64647265737300000000000000000000000000000000000000000000000000006020830152604082019050919050565b60006122dc601c83612c2d565b91507f4552433732313a20746f6b656e20616c7265616479206d696e746564000000006000830152602082019050919050565b600061231c602483612c2d565b91507f4552433732313a207472616e7366657220746f20746865207a65726f2061646460008301527f72657373000000000000000000000000000000000000000000000000000000006020830152604082019050919050565b6000612382601983612c2d565b91507f4552433732313a20617070726f766520746f2063616c6c6572000000000000006000830152602082019050919050565b60006123c2602c83612c2d565b91507f4552433732313a206f70657261746f7220717565727920666f72206e6f6e657860008301527f697374656e7420746f6b656e00000000000000000000000000000000000000006020830152604082019050919050565b6000612428603883612c2d565b91507f4552433732313a20617070726f76652063616c6c6572206973206e6f74206f7760008301527f6e6572206e6f7220617070726f76656420666f7220616c6c00000000000000006020830152604082019050919050565b600061248e602a83612c2d565b91507f4552433732313a2062616c616e636520717565727920666f7220746865207a6560008301527f726f2061646472657373000000000000000000000000000000000000000000006020830152604082019050919050565b60006124f4602983612c2d565b91507f4552433732313a206f776e657220717565727920666f72206e6f6e657869737460008301527f656e7420746f6b656e00000000000000000000000000000000000000000000006020830152604082019050919050565b600061255a602083612c2d565b91507f4552433732313a206d696e7420746f20746865207a65726f20616464726573736000830152602082019050919050565b600061259a602c83612c2d565b91507f4552433732313a20617070726f76656420717565727920666f72206e6f6e657860008301527f697374656e7420746f6b656e00000000000000000000000000000000000000006020830152604082019050919050565b6000612600602083612c2d565b91507f4f776e61626c653a2063616c6c6572206973206e6f7420746865206f776e65726000830152602082019050919050565b6000612640602983612c2d565b91507f4552433732313a207472616e73666572206f6620746f6b656e2074686174206960008301527f73206e6f74206f776e00000000000000000000000000000000000000000000006020830152604082019050919050565b60006126a6602f83612c2d565b91507f4552433732314d657461646174613a2055524920717565727920666f72206e6f60008301527f6e6578697374656e7420746f6b656e00000000000000000000000000000000006020830152604082019050919050565b600061270c602183612c2d565b91507f4552433732313a20617070726f76616c20746f2063757272656e74206f776e6560008301527f72000000000000000000000000000000000000000000000000000000000000006020830152604082019050919050565b6000612772603183612c2d565b91507f4552433732313a207472616e736665722063616c6c6572206973206e6f74206f60008301527f776e6572206e6f7220617070726f7665640000000000000000000000000000006020830152604082019050919050565b60006040830160008301516127e36000860182612808565b50602083015184820360208601526127fb8282612160565b9150508091505092915050565b61281181612d6e565b82525050565b61282081612d6e565b82525050565b600061283282856121d2565b915061283e82846121d2565b91508190509392505050565b600060208201905061285f6000830184612094565b92915050565b600060808201905061287a6000830187612094565b6128876020830186612094565b6128946040830185612817565b81810360608301526128a68184612127565b905095945050505050565b600060208201905081810360008301526128cb81846120a3565b905092915050565b60006020820190506128e86000830184612118565b92915050565b600060208201905081810360008301526129088184612199565b905092915050565b6000602082019050818103600083015261292981612203565b9050919050565b6000602082019050818103600083015261294981612269565b9050919050565b60006020820190508181036000830152612969816122cf565b9050919050565b600060208201905081810360008301526129898161230f565b9050919050565b600060208201905081810360008301526129a981612375565b9050919050565b600060208201905081810360008301526129c9816123b5565b9050919050565b600060208201905081810360008301526129e98161241b565b9050919050565b60006020820190508181036000830152612a0981612481565b9050919050565b60006020820190508181036000830152612a29816124e7565b9050919050565b60006020820190508181036000830152612a498161254d565b9050919050565b60006020820190508181036000830152612a698161258d565b9050919050565b60006020820190508181036000830152612a89816125f3565b9050919050565b60006020820190508181036000830152612aa981612633565b9050919050565b60006020820190508181036000830152612ac981612699565b9050919050565b60006020820190508181036000830152612ae9816126ff565b9050919050565b60006020820190508181036000830152612b0981612765565b9050919050565b6000602082019050612b256000830184612817565b92915050565b6000604051905081810181811067ffffffffffffffff82111715612b5257612b51612ef3565b5b8060405250919050565b600067ffffffffffffffff821115612b7757612b76612ef3565b5b601f19601f8301169050602081019050919050565b600067ffffffffffffffff821115612ba757612ba6612ef3565b5b601f19601f8301169050602081019050919050565b6000819050602082019050919050565b600081519050919050565b600081519050919050565b600081519050919050565b6000602082019050919050565b600082825260208201905092915050565b600082825260208201905092915050565b600082825260208201905092915050565b600082825260208201905092915050565b600081905092915050565b6000612c5482612d6e565b9150612c5f83612d6e565b9250827fffffffffffffffffffffffffffffffffffffffffffffffffffffffffffffffff03821115612c9457612c93612e66565b5b828201905092915050565b6000612caa82612d6e565b9150612cb583612d6e565b925082612cc557612cc4612e95565b5b828204905092915050565b6000612cdb82612d6e565b9150612ce683612d6e565b925082821015612cf957612cf8612e66565b5b828203905092915050565b6000612d0f82612d4e565b9050919050565b60008115159050919050565b60007fffffffff0000000000000000000000000000000000000000000000000000000082169050919050565b600073ffffffffffffffffffffffffffffffffffffffff82169050919050565b6000819050919050565b82818337600083830152505050565b60005b83811015612da5578082015181840152602081019050612d8a565b83811115612db4576000848401525b50505050565b60006002820490506001821680612dd257607f821691505b60208210811415612de657612de5612ec4565b5b50919050565b6000612df782612d6e565b91507fffffffffffffffffffffffffffffffffffffffffffffffffffffffffffffffff821415612e2a57612e29612e66565b5b600182019050919050565b6000612e4082612d6e565b9150612e4b83612d6e565b925082612e5b57612e5a612e95565b5b828206905092915050565b7f4e487b7100000000000000000000000000000000000000000000000000000000600052601160045260246000fd5b7f4e487b7100000000000000000000000000000000000000000000000000000000600052601260045260246000fd5b7f4e487b7100000000000000000000000000000000000000000000000000000000600052602260045260246000fd5b7f4e487b7100000000000000000000000000000000000000000000000000000000600052604160045260246000fd5b6000601f19601f8301169050919050565b612f3c81612d04565b8114612f4757600080fd5b50565b612f5381612d16565b8114612f5e57600080fd5b50565b612f6a81612d22565b8114612f7557600080fd5b50565b612f8181612d6e565b8114612f8c57600080fd5b5056fea2646970667358221220eaaa234e5164ba3c2debd17305bb77feca9043995c44fc5c807ac777d04a078364736f6c63430008000033",
  "immutableReferences": {},
  "source": "// SPDX-License-Identifier: GPL-3.0\npragma solidity >=0.4.22 <0.9.0;\n\nimport \"@openzeppelin/contracts/token/ERC721/ERC721.sol\";\nimport \"@openzeppelin/contracts/utils/Counters.sol\";\nimport \"@openzeppelin/contracts/access/Ownable.sol\";\n\ncontract DigitalArt is ERC721, Ownable {\n    using Counters for Counters.Counter;\n    using Strings for uint256;\n    Counters.Counter _tokenIds;\n    mapping(uint256 => string) _tokenURIs;\n    \n    struct Tokens {\n        uint256 id;\n        string uri;\n    }\n    \n    constructor() ERC721(\"Digital Art Token\", \"D-ART\") {}\n    \n    function _setTokenURI(uint256 tokenId, string memory _tokenURI) internal {\n        _tokenURIs[tokenId] = _tokenURI;\n    }\n    \n    function getTokenURI(uint256 tokenId) public view virtual returns(string memory) {\n        require(_exists(tokenId));\n        return _tokenURIs[tokenId];\n    }\n    \n    function getAllTokens() public view returns(Tokens[] memory) {\n        uint256 latestId = _tokenIds.current();\n        uint256 counter = 0;\n        Tokens[] memory allTokens = new Tokens[](latestId);\n        \n        for (uint i = 0; i < latestId; i++) {\n            if (_exists(counter)) {\n                string memory uri = getTokenURI(counter);\n                allTokens[counter] = Tokens(counter, uri);\n            }\n            counter++;\n        }\n        return allTokens;\n    } \n    \n    function mint(address recipient, string memory uri) public onlyOwner() {\n        uint256 newId = _tokenIds.current();\n        _mint(recipient, newId);\n        _setTokenURI(newId, uri);\n    }\n}",
  "sourcePath": "/Users/heesoohwang/Truffle/ipfs_image_uploader/contracts/SimpleStorage.sol",
  "compiler": {
    "name": "solc",
    "version": "0.8.0+commit.c7dfd78e.Emscripten.clang"
  },
  "schemaVersion": "3.4.3",
  "updatedAt": "2021-09-21T22:41:12.772Z",
  "devdoc": {
    "kind": "dev",
    "methods": {
      "approve(address,uint256)": {
        "details": "See {IERC721-approve}."
      },
      "balanceOf(address)": {
        "details": "See {IERC721-balanceOf}."
      },
      "getApproved(uint256)": {
        "details": "See {IERC721-getApproved}."
      },
      "isApprovedForAll(address,address)": {
        "details": "See {IERC721-isApprovedForAll}."
      },
      "name()": {
        "details": "See {IERC721Metadata-name}."
      },
      "owner()": {
        "details": "Returns the address of the current owner."
      },
      "ownerOf(uint256)": {
        "details": "See {IERC721-ownerOf}."
      },
      "renounceOwnership()": {
        "details": "Leaves the contract without owner. It will not be possible to call `onlyOwner` functions anymore. Can only be called by the current owner. NOTE: Renouncing ownership will leave the contract without an owner, thereby removing any functionality that is only available to the owner."
      },
      "safeTransferFrom(address,address,uint256)": {
        "details": "See {IERC721-safeTransferFrom}."
      },
      "safeTransferFrom(address,address,uint256,bytes)": {
        "details": "See {IERC721-safeTransferFrom}."
      },
      "setApprovalForAll(address,bool)": {
        "details": "See {IERC721-setApprovalForAll}."
      },
      "supportsInterface(bytes4)": {
        "details": "See {IERC165-supportsInterface}."
      },
      "symbol()": {
        "details": "See {IERC721Metadata-symbol}."
      },
      "tokenURI(uint256)": {
        "details": "See {IERC721Metadata-tokenURI}."
      },
      "transferFrom(address,address,uint256)": {
        "details": "See {IERC721-transferFrom}."
      },
      "transferOwnership(address)": {
        "details": "Transfers ownership of the contract to a new account (`newOwner`). Can only be called by the current owner."
      }
    },
    "version": 1
  },
  "userdoc": {
    "kind": "user",
    "methods": {},
    "version": 1
  }
}