{
  "contractName": "DigitalArt",
  "abi": [
    {
      "inputs": [],
      "stateMutability": "nonpayable",
      "type": "constructor"
    },
    {
      "anonymous": false,
      "inputs": [
        {
          "indexed": true,
          "internalType": "address",
          "name": "owner",
          "type": "address"
        },
        {
          "indexed": true,
          "internalType": "address",
          "name": "approved",
          "type": "address"
        },
        {
          "indexed": true,
          "internalType": "uint256",
          "name": "tokenId",
          "type": "uint256"
        }
      ],
      "name": "Approval",
      "type": "event"
    },
    {
      "anonymous": false,
      "inputs": [
        {
          "indexed": true,
          "internalType": "address",
          "name": "owner",
          "type": "address"
        },
        {
          "indexed": true,
          "internalType": "address",
          "name": "operator",
          "type": "address"
        },
        {
          "indexed": false,
          "internalType": "bool",
          "name": "approved",
          "type": "bool"
        }
      ],
      "name": "ApprovalForAll",
      "type": "event"
    },
    {
      "anonymous": false,
      "inputs": [
        {
          "indexed": true,
          "internalType": "address",
          "name": "previousOwner",
          "type": "address"
        },
        {
          "indexed": true,
          "internalType": "address",
          "name": "newOwner",
          "type": "address"
        }
      ],
      "name": "OwnershipTransferred",
      "type": "event"
    },
    {
      "anonymous": false,
      "inputs": [
        {
          "indexed": true,
          "internalType": "address",
          "name": "from",
          "type": "address"
        },
        {
          "indexed": true,
          "internalType": "address",
          "name": "to",
          "type": "address"
        },
        {
          "indexed": true,
          "internalType": "uint256",
          "name": "tokenId",
          "type": "uint256"
        }
      ],
      "name": "Transfer",
      "type": "event"
    },
    {
      "inputs": [
        {
          "internalType": "address",
          "name": "to",
          "type": "address"
        },
        {
          "internalType": "uint256",
          "name": "tokenId",
          "type": "uint256"
        }
      ],
      "name": "approve",
      "outputs": [],
      "stateMutability": "nonpayable",
      "type": "function"
    },
    {
      "inputs": [
        {
          "internalType": "address",
          "name": "owner",
          "type": "address"
        }
      ],
      "name": "balanceOf",
      "outputs": [
        {
          "internalType": "uint256",
          "name": "",
          "type": "uint256"
        }
      ],
      "stateMutability": "view",
      "type": "function",
      "constant": true
    },
    {
      "inputs": [
        {
          "internalType": "uint256",
          "name": "tokenId",
          "type": "uint256"
        }
      ],
      "name": "getApproved",
      "outputs": [
        {
          "internalType": "address",
          "name": "",
          "type": "address"
        }
      ],
      "stateMutability": "view",
      "type": "function",
      "constant": true
    },
    {
      "inputs": [
        {
          "internalType": "address",
          "name": "owner",
          "type": "address"
        },
        {
          "internalType": "address",
          "name": "operator",
          "type": "address"
        }
      ],
      "name": "isApprovedForAll",
      "outputs": [
        {
          "internalType": "bool",
          "name": "",
          "type": "bool"
        }
      ],
      "stateMutability": "view",
      "type": "function",
      "constant": true
    },
    {
      "inputs": [],
      "name": "name",
      "outputs": [
        {
          "internalType": "string",
          "name": "",
          "type": "string"
        }
      ],
      "stateMutability": "view",
      "type": "function",
      "constant": true
    },
    {
      "inputs": [],
      "name": "owner",
      "outputs": [
        {
          "internalType": "address",
          "name": "",
          "type": "address"
        }
      ],
      "stateMutability": "view",
      "type": "function",
      "constant": true
    },
    {
      "inputs": [
        {
          "internalType": "uint256",
          "name": "tokenId",
          "type": "uint256"
        }
      ],
      "name": "ownerOf",
      "outputs": [
        {
          "internalType": "address",
          "name": "",
          "type": "address"
        }
      ],
      "stateMutability": "view",
      "type": "function",
      "constant": true
    },
    {
      "inputs": [],
      "name": "renounceOwnership",
      "outputs": [],
      "stateMutability": "nonpayable",
      "type": "function"
    },
    {
      "inputs": [
        {
          "internalType": "address",
          "name": "from",
          "type": "address"
        },
        {
          "internalType": "address",
          "name": "to",
          "type": "address"
        },
        {
          "internalType": "uint256",
          "name": "tokenId",
          "type": "uint256"
        }
      ],
      "name": "safeTransferFrom",
      "outputs": [],
      "stateMutability": "nonpayable",
      "type": "function"
    },
    {
      "inputs": [
        {
          "internalType": "address",
          "name": "from",
          "type": "address"
        },
        {
          "internalType": "address",
          "name": "to",
          "type": "address"
        },
        {
          "internalType": "uint256",
          "name": "tokenId",
          "type": "uint256"
        },
        {
          "internalType": "bytes",
          "name": "_data",
          "type": "bytes"
        }
      ],
      "name": "safeTransferFrom",
      "outputs": [],
      "stateMutability": "nonpayable",
      "type": "function"
    },
    {
      "inputs": [
        {
          "internalType": "address",
          "name": "operator",
          "type": "address"
        },
        {
          "internalType": "bool",
          "name": "approved",
          "type": "bool"
        }
      ],
      "name": "setApprovalForAll",
      "outputs": [],
      "stateMutability": "nonpayable",
      "type": "function"
    },
    {
      "inputs": [
        {
          "internalType": "bytes4",
          "name": "interfaceId",
          "type": "bytes4"
        }
      ],
      "name": "supportsInterface",
      "outputs": [
        {
          "internalType": "bool",
          "name": "",
          "type": "bool"
        }
      ],
      "stateMutability": "view",
      "type": "function",
      "constant": true
    },
    {
      "inputs": [],
      "name": "symbol",
      "outputs": [
        {
          "internalType": "string",
          "name": "",
          "type": "string"
        }
      ],
      "stateMutability": "view",
      "type": "function",
      "constant": true
    },
    {
      "inputs": [
        {
          "internalType": "uint256",
          "name": "tokenId",
          "type": "uint256"
        }
      ],
      "name": "tokenURI",
      "outputs": [
        {
          "internalType": "string",
          "name": "",
          "type": "string"
        }
      ],
      "stateMutability": "view",
      "type": "function",
      "constant": true
    },
    {
      "inputs": [
        {
          "internalType": "address",
          "name": "from",
          "type": "address"
        },
        {
          "internalType": "address",
          "name": "to",
          "type": "address"
        },
        {
          "internalType": "uint256",
          "name": "tokenId",
          "type": "uint256"
        }
      ],
      "name": "transferFrom",
      "outputs": [],
      "stateMutability": "nonpayable",
      "type": "function"
    },
    {
      "inputs": [
        {
          "internalType": "address",
          "name": "newOwner",
          "type": "address"
        }
      ],
      "name": "transferOwnership",
      "outputs": [],
      "stateMutability": "nonpayable",
      "type": "function"
    },
    {
      "inputs": [
        {
          "internalType": "uint256",
          "name": "tokenId",
          "type": "uint256"
        }
      ],
      "name": "getTokenURI",
      "outputs": [
        {
          "internalType": "string",
          "name": "",
          "type": "string"
        }
      ],
      "stateMutability": "view",
      "type": "function",
      "constant": true
    },
    {
      "inputs": [],
      "name": "getAllTokens",
      "outputs": [
        {
          "components": [
            {
              "internalType": "uint256",
              "name": "id",
              "type": "uint256"
            },
            {
              "internalType": "string",
              "name": "uri",
              "type": "string"
            }
          ],
          "internalType": "struct DigitalArt.Tokens[]",
          "name": "",
          "type": "tuple[]"
        }
      ],
      "stateMutability": "view",
      "type": "function",
      "constant": true
    },
    {
      "inputs": [
        {
          "internalType": "address",
          "name": "recipient",
          "type": "address"
        },
        {
          "internalType": "string",
          "name": "uri",
          "type": "string"
        }
      ],
      "name": "mint",
      "outputs": [],
      "stateMutability": "nonpayable",
      "type": "function"
    }
  ],
  "bytecode": "0x60806040523480156200001157600080fd5b506040518060400160405280601181526020017f4469676974616c2041727420546f6b656e0000000000000000000000000000008152506040518060400160405280600581526020017f442d415254000000000000000000000000000000000000000000000000000000815250816000908051906020019062000096929190620001a6565b508060019080519060200190620000af929190620001a6565b505050620000d2620000c6620000d860201b60201c565b620000e060201b60201c565b620002bb565b600033905090565b6000600660009054906101000a900473ffffffffffffffffffffffffffffffffffffffff16905081600660006101000a81548173ffffffffffffffffffffffffffffffffffffffff021916908373ffffffffffffffffffffffffffffffffffffffff1602179055508173ffffffffffffffffffffffffffffffffffffffff168173ffffffffffffffffffffffffffffffffffffffff167f8be0079c531659141344cd1fd0a4f28419497f9722a3daafe3b4186f6b6457e060405160405180910390a35050565b828054620001b49062000256565b90600052602060002090601f016020900481019282620001d8576000855562000224565b82601f10620001f357805160ff191683800117855562000224565b8280016001018555821562000224579182015b828111156200022357825182559160200191906001019062000206565b5b50905062000233919062000237565b5090565b5b808211156200025257600081600090555060010162000238565b5090565b600060028204905060018216806200026f57607f821691505b602082108114156200028657620002856200028c565b5b50919050565b7f4e487b7100000000000000000000000000000000000000000000000000000000600052602260045260246000fd5b612fe580620002cb6000396000f3fe608060405234801561001057600080fd5b50600436106101215760003560e01c806370a08231116100ad578063b88d4fde11610071578063b88d4fde14610308578063c87b56dd14610324578063d0def52114610354578063e985e9c514610370578063f2fde38b146103a057610121565b806370a0823114610276578063715018a6146102a65780638da5cb5b146102b057806395d89b41146102ce578063a22cb465146102ec57610121565b806323b872dd116100f457806323b872dd146101c05780632a5c792a146101dc5780633bb3a24d146101fa57806342842e0e1461022a5780636352211e1461024657610121565b806301ffc9a71461012657806306fdde0314610156578063081812fc14610174578063095ea7b3146101a4575b600080fd5b610140600480360381019061013b9190612025565b6103bc565b60405161014d91906128f3565b60405180910390f35b61015e61049e565b60405161016b919061290e565b60405180910390f35b61018e60048036038101906101899190612077565b610530565b60405161019b919061286a565b60405180910390f35b6101be60048036038101906101b99190611fe9565b6105b5565b005b6101da60048036038101906101d59190611e8f565b6106cd565b005b6101e461072d565b6040516101f191906128d1565b60405180910390f35b610214600480360381019061020f9190612077565b610868565b604051610221919061290e565b60405180910390f35b610244600480360381019061023f9190611e8f565b61091f565b005b610260600480360381019061025b9190612077565b61093f565b60405161026d919061286a565b60405180910390f35b610290600480360381019061028b9190611e2a565b6109f1565b60405161029d9190612b30565b60405180910390f35b6102ae610aa9565b005b6102b8610b31565b6040516102c5919061286a565b60405180910390f35b6102d6610b5b565b6040516102e3919061290e565b60405180910390f35b61030660048036038101906103019190611f59565b610bed565b005b610322600480360381019061031d9190611ede565b610d6e565b005b61033e60048036038101906103399190612077565b610dd0565b60405161034b919061290e565b60405180910390f35b61036e60048036038101906103699190611f95565b610e77565b005b61038a60048036038101906103859190611e53565b610f24565b60405161039791906128f3565b60405180910390f35b6103ba60048036038101906103b59190611e2a565b610fb8565b005b60007f80ac58cd000000000000000000000000000000000000000000000000000000007bffffffffffffffffffffffffffffffffffffffffffffffffffffffff1916827bffffffffffffffffffffffffffffffffffffffffffffffffffffffff1916148061048757507f5b5e139f000000000000000000000000000000000000000000000000000000007bffffffffffffffffffffffffffffffffffffffffffffffffffffffff1916827bffffffffffffffffffffffffffffffffffffffffffffffffffffffff1916145b806104975750610496826110b0565b5b9050919050565b6060600080546104ad90612dda565b80601f01602080910402602001604051908101604052809291908181526020018280546104d990612dda565b80156105265780601f106104fb57610100808354040283529160200191610526565b820191906000526020600020905b81548152906001019060200180831161050957829003601f168201915b5050505050905090565b600061053b8261111a565b61057a576040517f08c379a000000000000000000000000000000000000000000000000000000000815260040161057190612a70565b60405180910390fd5b6004600083815260200190815260200160002060009054906101000a900473ffffffffffffffffffffffffffffffffffffffff169050919050565b60006105c08261093f565b90508073ffffffffffffffffffffffffffffffffffffffff168373ffffffffffffffffffffffffffffffffffffffff161415610631576040517f08c379a000000000000000000000000000000000000000000000000000000000815260040161062890612af0565b60405180910390fd5b8073ffffffffffffffffffffffffffffffffffffffff16610650611186565b73ffffffffffffffffffffffffffffffffffffffff16148061067f575061067e81610679611186565b610f24565b5b6106be576040517f08c379a00000000000000000000000000000000000000000000000000000000081526004016106b5906129f0565b60405180910390fd5b6106c8838361118e565b505050565b6106de6106d8611186565b82611247565b61071d576040517f08c379a000000000000000000000000000000000000000000000000000000000815260040161071490612b10565b60405180910390fd5b610728838383611325565b505050565b6060600061073b6007611581565b90506000808267ffffffffffffffff811115610780577f4e487b7100000000000000000000000000000000000000000000000000000000600052604160045260246000fd5b6040519080825280602002602001820160405280156107b957816020015b6107a6611c34565b81526020019060019003908161079e5790505b50905060005b8381101561085e576107d08361111a565b1561083d5760006107e084610868565b9050604051806040016040528085815260200182815250838581518110610830577f4e487b7100000000000000000000000000000000000000000000000000000000600052603260045260246000fd5b6020026020010181905250505b828061084890612e0c565b935050808061085690612e0c565b9150506107bf565b5080935050505090565b60606108738261111a565b61087c57600080fd5b60086000838152602001908152602001600020805461089a90612dda565b80601f01602080910402602001604051908101604052809291908181526020018280546108c690612dda565b80156109135780601f106108e857610100808354040283529160200191610913565b820191906000526020600020905b8154815290600101906020018083116108f657829003601f168201915b50505050509050919050565b61093a83838360405180602001604052806000815250610d6e565b505050565b6000806002600084815260200190815260200160002060009054906101000a900473ffffffffffffffffffffffffffffffffffffffff169050600073ffffffffffffffffffffffffffffffffffffffff168173ffffffffffffffffffffffffffffffffffffffff1614156109e8576040517f08c379a00000000000000000000000000000000000000000000000000000000081526004016109df90612a30565b60405180910390fd5b80915050919050565b60008073ffffffffffffffffffffffffffffffffffffffff168273ffffffffffffffffffffffffffffffffffffffff161415610a62576040517f08c379a0000000000000000000000000000000000000000000000000000000008152600401610a5990612a10565b60405180910390fd5b600360008373ffffffffffffffffffffffffffffffffffffffff1673ffffffffffffffffffffffffffffffffffffffff168152602001908152602001600020549050919050565b610ab1611186565b73ffffffffffffffffffffffffffffffffffffffff16610acf610b31565b73ffffffffffffffffffffffffffffffffffffffff1614610b25576040517f08c379a0000000000000000000000000000000000000000000000000000000008152600401610b1c90612a90565b60405180910390fd5b610b2f600061158f565b565b6000600660009054906101000a900473ffffffffffffffffffffffffffffffffffffffff16905090565b606060018054610b6a90612dda565b80601f0160208091040260200160405190810160405280929190818152602001828054610b9690612dda565b8015610be35780601f10610bb857610100808354040283529160200191610be3565b820191906000526020600020905b815481529060010190602001808311610bc657829003601f168201915b5050505050905090565b610bf5611186565b73ffffffffffffffffffffffffffffffffffffffff168273ffffffffffffffffffffffffffffffffffffffff161415610c63576040517f08c379a0000000000000000000000000000000000000000000000000000000008152600401610c5a906129b0565b60405180910390fd5b8060056000610c70611186565b73ffffffffffffffffffffffffffffffffffffffff1673ffffffffffffffffffffffffffffffffffffffff16815260200190815260200160002060008473ffffffffffffffffffffffffffffffffffffffff1673ffffffffffffffffffffffffffffffffffffffff16815260200190815260200160002060006101000a81548160ff0219169083151502179055508173ffffffffffffffffffffffffffffffffffffffff16610d1d611186565b73ffffffffffffffffffffffffffffffffffffffff167f17307eab39ab6107e8899845ad3d59bd9653f200f220920489ca2b5937696c3183604051610d6291906128f3565b60405180910390a35050565b610d7f610d79611186565b83611247565b610dbe576040517f08c379a0000000000000000000000000000000000000000000000000000000008152600401610db590612b10565b60405180910390fd5b610dca84848484611655565b50505050565b6060610ddb8261111a565b610e1a576040517f08c379a0000000000000000000000000000000000000000000000000000000008152600401610e1190612ad0565b60405180910390fd5b6000610e246116b1565b90506000815111610e445760405180602001604052806000815250610e6f565b80610e4e846116c8565b604051602001610e5f929190612846565b6040516020818303038152906040525b915050919050565b610e7f611186565b73ffffffffffffffffffffffffffffffffffffffff16610e9d610b31565b73ffffffffffffffffffffffffffffffffffffffff1614610ef3576040517f08c379a0000000000000000000000000000000000000000000000000000000008152600401610eea90612a90565b60405180910390fd5b6000610eff6007611581565b9050610f0b8382611875565b610f158183611a43565b610f1f6007611a6f565b505050565b6000600560008473ffffffffffffffffffffffffffffffffffffffff1673ffffffffffffffffffffffffffffffffffffffff16815260200190815260200160002060008373ffffffffffffffffffffffffffffffffffffffff1673ffffffffffffffffffffffffffffffffffffffff16815260200190815260200160002060009054906101000a900460ff16905092915050565b610fc0611186565b73ffffffffffffffffffffffffffffffffffffffff16610fde610b31565b73ffffffffffffffffffffffffffffffffffffffff1614611034576040517f08c379a000000000000000000000000000000000000000000000000000000000815260040161102b90612a90565b60405180910390fd5b600073ffffffffffffffffffffffffffffffffffffffff168173ffffffffffffffffffffffffffffffffffffffff1614156110a4576040517f08c379a000000000000000000000000000000000000000000000000000000000815260040161109b90612950565b60405180910390fd5b6110ad8161158f565b50565b60007f01ffc9a7000000000000000000000000000000000000000000000000000000007bffffffffffffffffffffffffffffffffffffffffffffffffffffffff1916827bffffffffffffffffffffffffffffffffffffffffffffffffffffffff1916149050919050565b60008073ffffffffffffffffffffffffffffffffffffffff166002600084815260200190815260200160002060009054906101000a900473ffffffffffffffffffffffffffffffffffffffff1673ffffffffffffffffffffffffffffffffffffffff1614159050919050565b600033905090565b816004600083815260200190815260200160002060006101000a81548173ffffffffffffffffffffffffffffffffffffffff021916908373ffffffffffffffffffffffffffffffffffffffff160217905550808273ffffffffffffffffffffffffffffffffffffffff166112018361093f565b73ffffffffffffffffffffffffffffffffffffffff167f8c5be1e5ebec7d5bd14f71427d1e84f3dd0314c0f7b2291e5b200ac8c7c3b92560405160405180910390a45050565b60006112528261111a565b611291576040517f08c379a0000000000000000000000000000000000000000000000000000000008152600401611288906129d0565b60405180910390fd5b600061129c8361093f565b90508073ffffffffffffffffffffffffffffffffffffffff168473ffffffffffffffffffffffffffffffffffffffff16148061130b57508373ffffffffffffffffffffffffffffffffffffffff166112f384610530565b73ffffffffffffffffffffffffffffffffffffffff16145b8061131c575061131b8185610f24565b5b91505092915050565b8273ffffffffffffffffffffffffffffffffffffffff166113458261093f565b73ffffffffffffffffffffffffffffffffffffffff161461139b576040517f08c379a000000000000000000000000000000000000000000000000000000000815260040161139290612ab0565b60405180910390fd5b600073ffffffffffffffffffffffffffffffffffffffff168273ffffffffffffffffffffffffffffffffffffffff16141561140b576040517f08c379a000000000000000000000000000000000000000000000000000000000815260040161140290612990565b60405180910390fd5b611416838383611a85565b61142160008261118e565b6001600360008573ffffffffffffffffffffffffffffffffffffffff1673ffffffffffffffffffffffffffffffffffffffff16815260200190815260200160002060008282546114719190612cf0565b925050819055506001600360008473ffffffffffffffffffffffffffffffffffffffff1673ffffffffffffffffffffffffffffffffffffffff16815260200190815260200160002060008282546114c89190612c69565b92505081905550816002600083815260200190815260200160002060006101000a81548173ffffffffffffffffffffffffffffffffffffffff021916908373ffffffffffffffffffffffffffffffffffffffff160217905550808273ffffffffffffffffffffffffffffffffffffffff168473ffffffffffffffffffffffffffffffffffffffff167fddf252ad1be2c89b69c2b068fc378daa952ba7f163c4a11628f55a4df523b3ef60405160405180910390a4505050565b600081600001549050919050565b6000600660009054906101000a900473ffffffffffffffffffffffffffffffffffffffff16905081600660006101000a81548173ffffffffffffffffffffffffffffffffffffffff021916908373ffffffffffffffffffffffffffffffffffffffff1602179055508173ffffffffffffffffffffffffffffffffffffffff168173ffffffffffffffffffffffffffffffffffffffff167f8be0079c531659141344cd1fd0a4f28419497f9722a3daafe3b4186f6b6457e060405160405180910390a35050565b611660848484611325565b61166c84848484611a8a565b6116ab576040517f08c379a00000000000000000000000000000000000000000000000000000000081526004016116a290612930565b60405180910390fd5b50505050565b606060405180602001604052806000815250905090565b60606000821415611710576040518060400160405280600181526020017f30000000000000000000000000000000000000000000000000000000000000008152509050611870565b600082905060005b6000821461174257808061172b90612e0c565b915050600a8261173b9190612cbf565b9150611718565b60008167ffffffffffffffff811115611784577f4e487b7100000000000000000000000000000000000000000000000000000000600052604160045260246000fd5b6040519080825280601f01601f1916602001820160405280156117b65781602001600182028036833780820191505090505b5090505b60008514611869576001826117cf9190612cf0565b9150600a856117de9190612e55565b60306117ea9190612c69565b60f81b818381518110611826577f4e487b7100000000000000000000000000000000000000000000000000000000600052603260045260246000fd5b60200101907effffffffffffffffffffffffffffffffffffffffffffffffffffffffffffff1916908160001a905350600a856118629190612cbf565b94506117ba565b8093505050505b919050565b600073ffffffffffffffffffffffffffffffffffffffff168273ffffffffffffffffffffffffffffffffffffffff1614156118e5576040517f08c379a00000000000000000000000000000000000000000000000000000000081526004016118dc90612a50565b60405180910390fd5b6118ee8161111a565b1561192e576040517f08c379a000000000000000000000000000000000000000000000000000000000815260040161192590612970565b60405180910390fd5b61193a60008383611a85565b6001600360008473ffffffffffffffffffffffffffffffffffffffff1673ffffffffffffffffffffffffffffffffffffffff168152602001908152602001600020600082825461198a9190612c69565b92505081905550816002600083815260200190815260200160002060006101000a81548173ffffffffffffffffffffffffffffffffffffffff021916908373ffffffffffffffffffffffffffffffffffffffff160217905550808273ffffffffffffffffffffffffffffffffffffffff16600073ffffffffffffffffffffffffffffffffffffffff167fddf252ad1be2c89b69c2b068fc378daa952ba7f163c4a11628f55a4df523b3ef60405160405180910390a45050565b80600860008481526020019081526020016000209080519060200190611a6a929190611c4e565b505050565b6001816000016000828254019250508190555050565b505050565b6000611aab8473ffffffffffffffffffffffffffffffffffffffff16611c21565b15611c14578373ffffffffffffffffffffffffffffffffffffffff1663150b7a02611ad4611186565b8786866040518563ffffffff1660e01b8152600401611af69493929190612885565b602060405180830381600087803b158015611b1057600080fd5b505af1925050508015611b4157506040513d601f19601f82011682018060405250810190611b3e919061204e565b60015b611bc4573d8060008114611b71576040519150601f19603f3d011682016040523d82523d6000602084013e611b76565b606091505b50600081511415611bbc576040517f08c379a0000000000000000000000000000000000000000000000000000000008152600401611bb390612930565b60405180910390fd5b805181602001fd5b63150b7a0260e01b7bffffffffffffffffffffffffffffffffffffffffffffffffffffffff1916817bffffffffffffffffffffffffffffffffffffffffffffffffffffffff191614915050611c19565b600190505b949350505050565b600080823b905060008111915050919050565b604051806040016040528060008152602001606081525090565b828054611c5a90612dda565b90600052602060002090601f016020900481019282611c7c5760008555611cc3565b82601f10611c9557805160ff1916838001178555611cc3565b82800160010185558215611cc3579182015b82811115611cc2578251825591602001919060010190611ca7565b5b509050611cd09190611cd4565b5090565b5b80821115611ced576000816000905550600101611cd5565b5090565b6000611d04611cff84612b7c565b612b4b565b905082815260208101848484011115611d1c57600080fd5b611d27848285612d98565b509392505050565b6000611d42611d3d84612bac565b612b4b565b905082815260208101848484011115611d5a57600080fd5b611d65848285612d98565b509392505050565b600081359050611d7c81612f53565b92915050565b600081359050611d9181612f6a565b92915050565b600081359050611da681612f81565b92915050565b600081519050611dbb81612f81565b92915050565b600082601f830112611dd257600080fd5b8135611de2848260208601611cf1565b91505092915050565b600082601f830112611dfc57600080fd5b8135611e0c848260208601611d2f565b91505092915050565b600081359050611e2481612f98565b92915050565b600060208284031215611e3c57600080fd5b6000611e4a84828501611d6d565b91505092915050565b60008060408385031215611e6657600080fd5b6000611e7485828601611d6d565b9250506020611e8585828601611d6d565b9150509250929050565b600080600060608486031215611ea457600080fd5b6000611eb286828701611d6d565b9350506020611ec386828701611d6d565b9250506040611ed486828701611e15565b9150509250925092565b60008060008060808587031215611ef457600080fd5b6000611f0287828801611d6d565b9450506020611f1387828801611d6d565b9350506040611f2487828801611e15565b925050606085013567ffffffffffffffff811115611f4157600080fd5b611f4d87828801611dc1565b91505092959194509250565b60008060408385031215611f6c57600080fd5b6000611f7a85828601611d6d565b9250506020611f8b85828601611d82565b9150509250929050565b60008060408385031215611fa857600080fd5b6000611fb685828601611d6d565b925050602083013567ffffffffffffffff811115611fd357600080fd5b611fdf85828601611deb565b9150509250929050565b60008060408385031215611ffc57600080fd5b600061200a85828601611d6d565b925050602061201b85828601611e15565b9150509250929050565b60006020828403121561203757600080fd5b600061204584828501611d97565b91505092915050565b60006020828403121561206057600080fd5b600061206e84828501611dac565b91505092915050565b60006020828403121561208957600080fd5b600061209784828501611e15565b91505092915050565b60006120ac83836127eb565b905092915050565b6120bd81612d24565b82525050565b60006120ce82612bec565b6120d88185612c1a565b9350836020820285016120ea85612bdc565b8060005b85811015612126578484038952815161210785826120a0565b945061211283612c0d565b925060208a019950506001810190506120ee565b50829750879550505050505092915050565b61214181612d36565b82525050565b600061215282612bf7565b61215c8185612c2b565b935061216c818560208601612da7565b61217581612f42565b840191505092915050565b600061218b82612c02565b6121958185612c3c565b93506121a5818560208601612da7565b6121ae81612f42565b840191505092915050565b60006121c482612c02565b6121ce8185612c4d565b93506121de818560208601612da7565b6121e781612f42565b840191505092915050565b60006121fd82612c02565b6122078185612c5e565b9350612217818560208601612da7565b80840191505092915050565b6000612230603283612c4d565b91507f4552433732313a207472616e7366657220746f206e6f6e20455243373231526560008301527f63656976657220696d706c656d656e74657200000000000000000000000000006020830152604082019050919050565b6000612296602683612c4d565b91507f4f776e61626c653a206e6577206f776e657220697320746865207a65726f206160008301527f64647265737300000000000000000000000000000000000000000000000000006020830152604082019050919050565b60006122fc601c83612c4d565b91507f4552433732313a20746f6b656e20616c7265616479206d696e746564000000006000830152602082019050919050565b600061233c602483612c4d565b91507f4552433732313a207472616e7366657220746f20746865207a65726f2061646460008301527f72657373000000000000000000000000000000000000000000000000000000006020830152604082019050919050565b60006123a2601983612c4d565b91507f4552433732313a20617070726f766520746f2063616c6c6572000000000000006000830152602082019050919050565b60006123e2602c83612c4d565b91507f4552433732313a206f70657261746f7220717565727920666f72206e6f6e657860008301527f697374656e7420746f6b656e00000000000000000000000000000000000000006020830152604082019050919050565b6000612448603883612c4d565b91507f4552433732313a20617070726f76652063616c6c6572206973206e6f74206f7760008301527f6e6572206e6f7220617070726f76656420666f7220616c6c00000000000000006020830152604082019050919050565b60006124ae602a83612c4d565b91507f4552433732313a2062616c616e636520717565727920666f7220746865207a6560008301527f726f2061646472657373000000000000000000000000000000000000000000006020830152604082019050919050565b6000612514602983612c4d565b91507f4552433732313a206f776e657220717565727920666f72206e6f6e657869737460008301527f656e7420746f6b656e00000000000000000000000000000000000000000000006020830152604082019050919050565b600061257a602083612c4d565b91507f4552433732313a206d696e7420746f20746865207a65726f20616464726573736000830152602082019050919050565b60006125ba602c83612c4d565b91507f4552433732313a20617070726f76656420717565727920666f72206e6f6e657860008301527f697374656e7420746f6b656e00000000000000000000000000000000000000006020830152604082019050919050565b6000612620602083612c4d565b91507f4f776e61626c653a2063616c6c6572206973206e6f7420746865206f776e65726000830152602082019050919050565b6000612660602983612c4d565b91507f4552433732313a207472616e73666572206f6620746f6b656e2074686174206960008301527f73206e6f74206f776e00000000000000000000000000000000000000000000006020830152604082019050919050565b60006126c6602f83612c4d565b91507f4552433732314d657461646174613a2055524920717565727920666f72206e6f60008301527f6e6578697374656e7420746f6b656e00000000000000000000000000000000006020830152604082019050919050565b600061272c602183612c4d565b91507f4552433732313a20617070726f76616c20746f2063757272656e74206f776e6560008301527f72000000000000000000000000000000000000000000000000000000000000006020830152604082019050919050565b6000612792603183612c4d565b91507f4552433732313a207472616e736665722063616c6c6572206973206e6f74206f60008301527f776e6572206e6f7220617070726f7665640000000000000000000000000000006020830152604082019050919050565b60006040830160008301516128036000860182612828565b506020830151848203602086015261281b8282612180565b9150508091505092915050565b61283181612d8e565b82525050565b61284081612d8e565b82525050565b600061285282856121f2565b915061285e82846121f2565b91508190509392505050565b600060208201905061287f60008301846120b4565b92915050565b600060808201905061289a60008301876120b4565b6128a760208301866120b4565b6128b46040830185612837565b81810360608301526128c68184612147565b905095945050505050565b600060208201905081810360008301526128eb81846120c3565b905092915050565b60006020820190506129086000830184612138565b92915050565b6000602082019050818103600083015261292881846121b9565b905092915050565b6000602082019050818103600083015261294981612223565b9050919050565b6000602082019050818103600083015261296981612289565b9050919050565b60006020820190508181036000830152612989816122ef565b9050919050565b600060208201905081810360008301526129a98161232f565b9050919050565b600060208201905081810360008301526129c981612395565b9050919050565b600060208201905081810360008301526129e9816123d5565b9050919050565b60006020820190508181036000830152612a098161243b565b9050919050565b60006020820190508181036000830152612a29816124a1565b9050919050565b60006020820190508181036000830152612a4981612507565b9050919050565b60006020820190508181036000830152612a698161256d565b9050919050565b60006020820190508181036000830152612a89816125ad565b9050919050565b60006020820190508181036000830152612aa981612613565b9050919050565b60006020820190508181036000830152612ac981612653565b9050919050565b60006020820190508181036000830152612ae9816126b9565b9050919050565b60006020820190508181036000830152612b098161271f565b9050919050565b60006020820190508181036000830152612b2981612785565b9050919050565b6000602082019050612b456000830184612837565b92915050565b6000604051905081810181811067ffffffffffffffff82111715612b7257612b71612f13565b5b8060405250919050565b600067ffffffffffffffff821115612b9757612b96612f13565b5b601f19601f8301169050602081019050919050565b600067ffffffffffffffff821115612bc757612bc6612f13565b5b601f19601f8301169050602081019050919050565b6000819050602082019050919050565b600081519050919050565b600081519050919050565b600081519050919050565b6000602082019050919050565b600082825260208201905092915050565b600082825260208201905092915050565b600082825260208201905092915050565b600082825260208201905092915050565b600081905092915050565b6000612c7482612d8e565b9150612c7f83612d8e565b9250827fffffffffffffffffffffffffffffffffffffffffffffffffffffffffffffffff03821115612cb457612cb3612e86565b5b828201905092915050565b6000612cca82612d8e565b9150612cd583612d8e565b925082612ce557612ce4612eb5565b5b828204905092915050565b6000612cfb82612d8e565b9150612d0683612d8e565b925082821015612d1957612d18612e86565b5b828203905092915050565b6000612d2f82612d6e565b9050919050565b60008115159050919050565b60007fffffffff0000000000000000000000000000000000000000000000000000000082169050919050565b600073ffffffffffffffffffffffffffffffffffffffff82169050919050565b6000819050919050565b82818337600083830152505050565b60005b83811015612dc5578082015181840152602081019050612daa565b83811115612dd4576000848401525b50505050565b60006002820490506001821680612df257607f821691505b60208210811415612e0657612e05612ee4565b5b50919050565b6000612e1782612d8e565b91507fffffffffffffffffffffffffffffffffffffffffffffffffffffffffffffffff821415612e4a57612e49612e86565b5b600182019050919050565b6000612e6082612d8e565b9150612e6b83612d8e565b925082612e7b57612e7a612eb5565b5b828206905092915050565b7f4e487b7100000000000000000000000000000000000000000000000000000000600052601160045260246000fd5b7f4e487b7100000000000000000000000000000000000000000000000000000000600052601260045260246000fd5b7f4e487b7100000000000000000000000000000000000000000000000000000000600052602260045260246000fd5b7f4e487b7100000000000000000000000000000000000000000000000000000000600052604160045260246000fd5b6000601f19601f8301169050919050565b612f5c81612d24565b8114612f6757600080fd5b50565b612f7381612d36565b8114612f7e57600080fd5b50565b612f8a81612d42565b8114612f9557600080fd5b50565b612fa181612d8e565b8114612fac57600080fd5b5056fea26469706673582212209d38201787e011162fe734b0bf88eb3b5751ce5b8564acd11e607d6a764052ea64736f6c63430008000033",
  "immutableReferences": {},
  "source": "// SPDX-License-Identifier: GPL-3.0\npragma solidity >=0.4.22 <0.9.0;\n\nimport \"@openzeppelin/contracts/token/ERC721/ERC721.sol\";\nimport \"@openzeppelin/contracts/utils/Counters.sol\";\nimport \"@openzeppelin/contracts/access/Ownable.sol\";\n\ncontract DigitalArt is ERC721, Ownable {\n    using Counters for Counters.Counter;\n    using Strings for uint256;\n    Counters.Counter _tokenIds;\n    mapping(uint256 => string) _tokenURIs;\n    \n    struct Tokens {\n        uint256 id;\n        string uri;\n    }\n    \n    constructor() ERC721(\"Digital Art Token\", \"D-ART\") {}\n    \n    function _setTokenURI(uint256 tokenId, string memory _tokenURI) internal {\n        _tokenURIs[tokenId] = _tokenURI;\n    }\n    \n    function getTokenURI(uint256 tokenId) public view virtual returns(string memory) {\n        require(_exists(tokenId));\n        return _tokenURIs[tokenId];\n    }\n    \n    function getAllTokens() public view returns(Tokens[] memory) {\n        uint256 latestId = _tokenIds.current();\n        uint256 counter = 0;\n        Tokens[] memory allTokens = new Tokens[](latestId);\n        \n        for (uint i = 0; i < latestId; i++) {\n            if (_exists(counter)) {\n                string memory uri = getTokenURI(counter);\n                allTokens[counter] = Tokens(counter, uri);\n            }\n            counter++;\n        }\n        return allTokens;\n    } \n    \n    function mint(address recipient, string memory uri) public onlyOwner() {\n        uint256 newId = _tokenIds.current();\n        _mint(recipient, newId);\n        _setTokenURI(newId, uri);\n        _tokenIds.increment();\n    }\n}",
  "sourcePath": "/Users/heesoohwang/Truffle/IPFS_ArtToken/contracts/SimpleStorage.sol",
  "compiler": {
    "name": "solc",
    "version": "0.8.0+commit.c7dfd78e.Emscripten.clang"
  },
  "schemaVersion": "3.4.3",
  "updatedAt": "2021-09-22T04:06:44.403Z",
  "networkType": "ethereum",
  "devdoc": {
    "kind": "dev",
    "methods": {
      "approve(address,uint256)": {
        "details": "See {IERC721-approve}."
      },
      "balanceOf(address)": {
        "details": "See {IERC721-balanceOf}."
      },
      "getApproved(uint256)": {
        "details": "See {IERC721-getApproved}."
      },
      "isApprovedForAll(address,address)": {
        "details": "See {IERC721-isApprovedForAll}."
      },
      "name()": {
        "details": "See {IERC721Metadata-name}."
      },
      "owner()": {
        "details": "Returns the address of the current owner."
      },
      "ownerOf(uint256)": {
        "details": "See {IERC721-ownerOf}."
      },
      "renounceOwnership()": {
        "details": "Leaves the contract without owner. It will not be possible to call `onlyOwner` functions anymore. Can only be called by the current owner. NOTE: Renouncing ownership will leave the contract without an owner, thereby removing any functionality that is only available to the owner."
      },
      "safeTransferFrom(address,address,uint256)": {
        "details": "See {IERC721-safeTransferFrom}."
      },
      "safeTransferFrom(address,address,uint256,bytes)": {
        "details": "See {IERC721-safeTransferFrom}."
      },
      "setApprovalForAll(address,bool)": {
        "details": "See {IERC721-setApprovalForAll}."
      },
      "supportsInterface(bytes4)": {
        "details": "See {IERC165-supportsInterface}."
      },
      "symbol()": {
        "details": "See {IERC721Metadata-symbol}."
      },
      "tokenURI(uint256)": {
        "details": "See {IERC721Metadata-tokenURI}."
      },
      "transferFrom(address,address,uint256)": {
        "details": "See {IERC721-transferFrom}."
      },
      "transferOwnership(address)": {
        "details": "Transfers ownership of the contract to a new account (`newOwner`). Can only be called by the current owner."
      }
    },
    "version": 1
  },
  "userdoc": {
    "kind": "user",
    "methods": {},
    "version": 1
  }
}